{
  "address": "0xB3D4353c9CE7191fe9cE081d69091b025B3d8EB2",
  "abi": [
    {
      "inputs": [
        {
          "internalType": "address",
          "name": "initialOwner",
          "type": "address"
        }
      ],
      "stateMutability": "nonpayable",
      "type": "constructor"
    },
    {
      "inputs": [
        {
          "internalType": "address",
          "name": "sender",
          "type": "address"
        },
        {
          "internalType": "uint256",
          "name": "tokenId",
          "type": "uint256"
        },
        {
          "internalType": "address",
          "name": "owner",
          "type": "address"
        }
      ],
      "name": "ERC721IncorrectOwner",
      "type": "error"
    },
    {
      "inputs": [
        {
          "internalType": "address",
          "name": "operator",
          "type": "address"
        },
        {
          "internalType": "uint256",
          "name": "tokenId",
          "type": "uint256"
        }
      ],
      "name": "ERC721InsufficientApproval",
      "type": "error"
    },
    {
      "inputs": [
        {
          "internalType": "address",
          "name": "approver",
          "type": "address"
        }
      ],
      "name": "ERC721InvalidApprover",
      "type": "error"
    },
    {
      "inputs": [
        {
          "internalType": "address",
          "name": "operator",
          "type": "address"
        }
      ],
      "name": "ERC721InvalidOperator",
      "type": "error"
    },
    {
      "inputs": [
        {
          "internalType": "address",
          "name": "owner",
          "type": "address"
        }
      ],
      "name": "ERC721InvalidOwner",
      "type": "error"
    },
    {
      "inputs": [
        {
          "internalType": "address",
          "name": "receiver",
          "type": "address"
        }
      ],
      "name": "ERC721InvalidReceiver",
      "type": "error"
    },
    {
      "inputs": [
        {
          "internalType": "address",
          "name": "sender",
          "type": "address"
        }
      ],
      "name": "ERC721InvalidSender",
      "type": "error"
    },
    {
      "inputs": [
        {
          "internalType": "uint256",
          "name": "tokenId",
          "type": "uint256"
        }
      ],
      "name": "ERC721NonexistentToken",
      "type": "error"
    },
    {
      "inputs": [
        {
          "internalType": "address",
          "name": "owner",
          "type": "address"
        }
      ],
      "name": "OwnableInvalidOwner",
      "type": "error"
    },
    {
      "inputs": [
        {
          "internalType": "address",
          "name": "account",
          "type": "address"
        }
      ],
      "name": "OwnableUnauthorizedAccount",
      "type": "error"
    },
    {
      "anonymous": false,
      "inputs": [],
      "name": "AddedNewCohort",
      "type": "event"
    },
    {
      "anonymous": false,
      "inputs": [
        {
          "indexed": true,
          "internalType": "address",
          "name": "owner",
          "type": "address"
        },
        {
          "indexed": true,
          "internalType": "address",
          "name": "approved",
          "type": "address"
        },
        {
          "indexed": true,
          "internalType": "uint256",
          "name": "tokenId",
          "type": "uint256"
        }
      ],
      "name": "Approval",
      "type": "event"
    },
    {
      "anonymous": false,
      "inputs": [
        {
          "indexed": true,
          "internalType": "address",
          "name": "owner",
          "type": "address"
        },
        {
          "indexed": true,
          "internalType": "address",
          "name": "operator",
          "type": "address"
        },
        {
          "indexed": false,
          "internalType": "bool",
          "name": "approved",
          "type": "bool"
        }
      ],
      "name": "ApprovalForAll",
      "type": "event"
    },
    {
      "anonymous": false,
      "inputs": [
        {
          "indexed": true,
          "internalType": "address",
          "name": "previousOwner",
          "type": "address"
        },
        {
          "indexed": true,
          "internalType": "address",
          "name": "newOwner",
          "type": "address"
        }
      ],
      "name": "OwnershipTransferred",
      "type": "event"
    },
    {
      "anonymous": false,
      "inputs": [
        {
          "indexed": true,
          "internalType": "address",
          "name": "from",
          "type": "address"
        },
        {
          "indexed": true,
          "internalType": "address",
          "name": "to",
          "type": "address"
        },
        {
          "indexed": true,
          "internalType": "uint256",
          "name": "tokenId",
          "type": "uint256"
        }
      ],
      "name": "Transfer",
      "type": "event"
    },
    {
      "inputs": [
        {
          "components": [
            {
              "internalType": "address",
              "name": "student",
              "type": "address"
            },
            {
              "internalType": "string",
              "name": "name",
              "type": "string"
            },
            {
              "internalType": "string",
              "name": "image",
              "type": "string"
            },
            {
              "internalType": "string",
              "name": "cohort",
              "type": "string"
            },
            {
              "internalType": "bool",
              "name": "added",
              "type": "bool"
            }
          ],
          "internalType": "struct CeloNFTS.nftDetails[]",
          "name": "_nftDetails",
          "type": "tuple[]"
        }
      ],
      "name": "addCohort",
      "outputs": [],
      "stateMutability": "nonpayable",
      "type": "function"
    },
    {
      "inputs": [
        {
          "internalType": "address",
          "name": "to",
          "type": "address"
        },
        {
          "internalType": "uint256",
          "name": "tokenId",
          "type": "uint256"
        }
      ],
      "name": "approve",
      "outputs": [],
      "stateMutability": "nonpayable",
      "type": "function"
    },
    {
      "inputs": [
        {
          "internalType": "address",
          "name": "owner",
          "type": "address"
        }
      ],
      "name": "balanceOf",
      "outputs": [
        {
          "internalType": "uint256",
          "name": "",
          "type": "uint256"
        }
      ],
      "stateMutability": "view",
      "type": "function"
    },
    {
      "inputs": [],
      "name": "checkPass",
      "outputs": [
        {
          "components": [
            {
              "internalType": "address",
              "name": "student",
              "type": "address"
            },
            {
              "internalType": "string",
              "name": "name",
              "type": "string"
            },
            {
              "internalType": "string",
              "name": "image",
              "type": "string"
            },
            {
              "internalType": "string",
              "name": "cohort",
              "type": "string"
            },
            {
              "internalType": "bool",
              "name": "added",
              "type": "bool"
            }
          ],
          "internalType": "struct CeloNFTS.nftDetails",
          "name": "nft",
          "type": "tuple"
        }
      ],
      "stateMutability": "view",
      "type": "function"
    },
    {
      "inputs": [
        {
          "internalType": "uint256",
          "name": "tokenId",
          "type": "uint256"
        }
      ],
      "name": "getApproved",
      "outputs": [
        {
          "internalType": "address",
          "name": "",
          "type": "address"
        }
      ],
      "stateMutability": "view",
      "type": "function"
    },
    {
      "inputs": [
        {
          "internalType": "address",
          "name": "owner",
          "type": "address"
        },
        {
          "internalType": "address",
          "name": "operator",
          "type": "address"
        }
      ],
      "name": "isApprovedForAll",
      "outputs": [
        {
          "internalType": "bool",
          "name": "",
          "type": "bool"
        }
      ],
      "stateMutability": "view",
      "type": "function"
    },
    {
      "inputs": [],
      "name": "mint",
      "outputs": [],
      "stateMutability": "nonpayable",
      "type": "function"
    },
    {
      "inputs": [],
      "name": "name",
      "outputs": [
        {
          "internalType": "string",
          "name": "",
          "type": "string"
        }
      ],
      "stateMutability": "view",
      "type": "function"
    },
    {
      "inputs": [],
      "name": "owner",
      "outputs": [
        {
          "internalType": "address",
          "name": "",
          "type": "address"
        }
      ],
      "stateMutability": "view",
      "type": "function"
    },
    {
      "inputs": [
        {
          "internalType": "uint256",
          "name": "tokenId",
          "type": "uint256"
        }
      ],
      "name": "ownerOf",
      "outputs": [
        {
          "internalType": "address",
          "name": "",
          "type": "address"
        }
      ],
      "stateMutability": "view",
      "type": "function"
    },
    {
      "inputs": [],
      "name": "renounceOwnership",
      "outputs": [],
      "stateMutability": "nonpayable",
      "type": "function"
    },
    {
      "inputs": [
        {
          "internalType": "address",
          "name": "from",
          "type": "address"
        },
        {
          "internalType": "address",
          "name": "to",
          "type": "address"
        },
        {
          "internalType": "uint256",
          "name": "tokenId",
          "type": "uint256"
        }
      ],
      "name": "safeTransferFrom",
      "outputs": [],
      "stateMutability": "nonpayable",
      "type": "function"
    },
    {
      "inputs": [
        {
          "internalType": "address",
          "name": "from",
          "type": "address"
        },
        {
          "internalType": "address",
          "name": "to",
          "type": "address"
        },
        {
          "internalType": "uint256",
          "name": "tokenId",
          "type": "uint256"
        },
        {
          "internalType": "bytes",
          "name": "data",
          "type": "bytes"
        }
      ],
      "name": "safeTransferFrom",
      "outputs": [],
      "stateMutability": "nonpayable",
      "type": "function"
    },
    {
      "inputs": [
        {
          "internalType": "address",
          "name": "operator",
          "type": "address"
        },
        {
          "internalType": "bool",
          "name": "approved",
          "type": "bool"
        }
      ],
      "name": "setApprovalForAll",
      "outputs": [],
      "stateMutability": "nonpayable",
      "type": "function"
    },
    {
      "inputs": [
        {
          "internalType": "bytes4",
          "name": "interfaceId",
          "type": "bytes4"
        }
      ],
      "name": "supportsInterface",
      "outputs": [
        {
          "internalType": "bool",
          "name": "",
          "type": "bool"
        }
      ],
      "stateMutability": "view",
      "type": "function"
    },
    {
      "inputs": [],
      "name": "symbol",
      "outputs": [
        {
          "internalType": "string",
          "name": "",
          "type": "string"
        }
      ],
      "stateMutability": "view",
      "type": "function"
    },
    {
      "inputs": [
        {
          "internalType": "uint256",
          "name": "tokenId",
          "type": "uint256"
        }
      ],
      "name": "tokenURI",
      "outputs": [
        {
          "internalType": "string",
          "name": "",
          "type": "string"
        }
      ],
      "stateMutability": "view",
      "type": "function"
    },
    {
      "inputs": [],
      "name": "totalSupply",
      "outputs": [
        {
          "internalType": "uint256",
          "name": "",
          "type": "uint256"
        }
      ],
      "stateMutability": "view",
      "type": "function"
    },
    {
      "inputs": [
        {
          "internalType": "address",
          "name": "from",
          "type": "address"
        },
        {
          "internalType": "address",
          "name": "to",
          "type": "address"
        },
        {
          "internalType": "uint256",
          "name": "tokenId",
          "type": "uint256"
        }
      ],
      "name": "transferFrom",
      "outputs": [],
      "stateMutability": "nonpayable",
      "type": "function"
    },
    {
      "inputs": [
        {
          "internalType": "address",
          "name": "newOwner",
          "type": "address"
        }
      ],
      "name": "transferOwnership",
      "outputs": [],
      "stateMutability": "nonpayable",
      "type": "function"
    }
  ],
  "transactionHash": "0x98a442cd381e482eb8827abbbfeaafb7d60cabf8528e79f637d4b426fd410f8b",
  "args": [
    "0x7f736235D9b05e8A8dAC7015DC6B2237Ad61de1D"
  ],
  "numDeployments": 5,
  "solcInputHash": "fe53807ab8f9295f05ee02634bab607d",
  "bytecode": "0x60806040523480156200001157600080fd5b506040516200401e3803806200401e833981810160405281019062000037919062000288565b806040518060400160405280600881526020017f43656c6f4e4654530000000000000000000000000000000000000000000000008152506040518060400160405280600381526020017f43455000000000000000000000000000000000000000000000000000000000008152508160009081620000b5919062000534565b508060019081620000c7919062000534565b505050600073ffffffffffffffffffffffffffffffffffffffff168173ffffffffffffffffffffffffffffffffffffffff16036200013f5760006040517f1e4fbdf70000000000000000000000000000000000000000000000000000000081526004016200013691906200062c565b60405180910390fd5b62000150816200015860201b60201c565b505062000649565b6000600660009054906101000a900473ffffffffffffffffffffffffffffffffffffffff16905081600660006101000a81548173ffffffffffffffffffffffffffffffffffffffff021916908373ffffffffffffffffffffffffffffffffffffffff1602179055508173ffffffffffffffffffffffffffffffffffffffff168173ffffffffffffffffffffffffffffffffffffffff167f8be0079c531659141344cd1fd0a4f28419497f9722a3daafe3b4186f6b6457e060405160405180910390a35050565b600080fd5b600073ffffffffffffffffffffffffffffffffffffffff82169050919050565b6000620002508262000223565b9050919050565b620002628162000243565b81146200026e57600080fd5b50565b600081519050620002828162000257565b92915050565b600060208284031215620002a157620002a06200021e565b5b6000620002b18482850162000271565b91505092915050565b600081519050919050565b7f4e487b7100000000000000000000000000000000000000000000000000000000600052604160045260246000fd5b7f4e487b7100000000000000000000000000000000000000000000000000000000600052602260045260246000fd5b600060028204905060018216806200033c57607f821691505b602082108103620003525762000351620002f4565b5b50919050565b60008190508160005260206000209050919050565b60006020601f8301049050919050565b600082821b905092915050565b600060088302620003bc7fffffffffffffffffffffffffffffffffffffffffffffffffffffffffffffffff826200037d565b620003c886836200037d565b95508019841693508086168417925050509392505050565b6000819050919050565b6000819050919050565b6000620004156200040f6200040984620003e0565b620003ea565b620003e0565b9050919050565b6000819050919050565b6200043183620003f4565b6200044962000440826200041c565b8484546200038a565b825550505050565b600090565b6200046062000451565b6200046d81848462000426565b505050565b5b8181101562000495576200048960008262000456565b60018101905062000473565b5050565b601f821115620004e457620004ae8162000358565b620004b9846200036d565b81016020851015620004c9578190505b620004e1620004d8856200036d565b83018262000472565b50505b505050565b600082821c905092915050565b60006200050960001984600802620004e9565b1980831691505092915050565b6000620005248383620004f6565b9150826002028217905092915050565b6200053f82620002ba565b67ffffffffffffffff8111156200055b576200055a620002c5565b5b62000567825462000323565b6200057482828562000499565b600060209050601f831160018114620005ac576000841562000597578287015190505b620005a3858262000516565b86555062000613565b601f198416620005bc8662000358565b60005b82811015620005e657848901518255600182019150602085019450602081019050620005bf565b8683101562000606578489015162000602601f891682620004f6565b8355505b6001600288020188555050505b505050505050565b620006268162000243565b82525050565b60006020820190506200064360008301846200061b565b92915050565b6139c580620006596000396000f3fe608060405234801561001057600080fd5b506004361061012c5760003560e01c806370a08231116100ad578063af95c37a11610071578063af95c37a14610309578063b88d4fde14610327578063c87b56dd14610343578063e985e9c514610373578063f2fde38b146103a35761012c565b806370a0823114610277578063715018a6146102a75780638da5cb5b146102b157806395d89b41146102cf578063a22cb465146102ed5761012c565b806318160ddd116100f457806318160ddd146101d55780631c7247fa146101f357806323b872dd1461020f57806342842e0e1461022b5780636352211e146102475761012c565b806301ffc9a71461013157806306fdde0314610161578063081812fc1461017f578063095ea7b3146101af5780631249c58b146101cb575b600080fd5b61014b60048036038101906101469190612433565b6103bf565b604051610158919061247b565b60405180910390f35b6101696104a1565b6040516101769190612526565b60405180910390f35b6101996004803603810190610194919061257e565b610533565b6040516101a691906125ec565b60405180910390f35b6101c960048036038101906101c49190612633565b61054f565b005b6101d3610565565b005b6101dd610966565b6040516101ea9190612682565b60405180910390f35b61020d600480360381019061020891906129ce565b61096c565b005b61022960048036038101906102249190612a17565b610bd3565b005b61024560048036038101906102409190612a17565b610cd5565b005b610261600480360381019061025c919061257e565b610cf5565b60405161026e91906125ec565b60405180910390f35b610291600480360381019061028c9190612a6a565b610d07565b60405161029e9190612682565b60405180910390f35b6102af610dc1565b005b6102b9610dd5565b6040516102c691906125ec565b60405180910390f35b6102d7610dff565b6040516102e49190612526565b60405180910390f35b61030760048036038101906103029190612a97565b610e91565b005b610311610ea7565b60405161031e9190612bc3565b60405180910390f35b610341600480360381019061033c9190612c86565b611125565b005b61035d6004803603810190610358919061257e565b611142565b60405161036a9190612526565b60405180910390f35b61038d60048036038101906103889190612d09565b611473565b60405161039a919061247b565b60405180910390f35b6103bd60048036038101906103b89190612a6a565b611507565b005b60007f80ac58cd000000000000000000000000000000000000000000000000000000007bffffffffffffffffffffffffffffffffffffffffffffffffffffffff1916827bffffffffffffffffffffffffffffffffffffffffffffffffffffffff1916148061048a57507f5b5e139f000000000000000000000000000000000000000000000000000000007bffffffffffffffffffffffffffffffffffffffffffffffffffffffff1916827bffffffffffffffffffffffffffffffffffffffffffffffffffffffff1916145b8061049a57506104998261158d565b5b9050919050565b6060600080546104b090612d78565b80601f01602080910402602001604051908101604052809291908181526020018280546104dc90612d78565b80156105295780601f106104fe57610100808354040283529160200191610529565b820191906000526020600020905b81548152906001019060200180831161050c57829003601f168201915b5050505050905090565b600061053e826115f7565b506105488261167f565b9050919050565b610561828261055c6116bc565b6116c4565b5050565b6000600860003373ffffffffffffffffffffffffffffffffffffffff1673ffffffffffffffffffffffffffffffffffffffff1681526020019081526020016000206040518060a00160405290816000820160009054906101000a900473ffffffffffffffffffffffffffffffffffffffff1673ffffffffffffffffffffffffffffffffffffffff1673ffffffffffffffffffffffffffffffffffffffff16815260200160018201805461061790612d78565b80601f016020809104026020016040519081016040528092919081815260200182805461064390612d78565b80156106905780601f1061066557610100808354040283529160200191610690565b820191906000526020600020905b81548152906001019060200180831161067357829003601f168201915b505050505081526020016002820180546106a990612d78565b80601f01602080910402602001604051908101604052809291908181526020018280546106d590612d78565b80156107225780601f106106f757610100808354040283529160200191610722565b820191906000526020600020905b81548152906001019060200180831161070557829003601f168201915b5050505050815260200160038201805461073b90612d78565b80601f016020809104026020016040519081016040528092919081815260200182805461076790612d78565b80156107b45780601f10610789576101008083540402835291602001916107b4565b820191906000526020600020905b81548152906001019060200180831161079757829003601f168201915b505050505081526020016004820160009054906101000a900460ff1615151515815250509050806080015161081e576040517f08c379a000000000000000000000000000000000000000000000000000000000815260040161081590612df5565b60405180910390fd5b6000600860003373ffffffffffffffffffffffffffffffffffffffff1673ffffffffffffffffffffffffffffffffffffffff16815260200190815260200160002060040160006101000a81548160ff0219169083151502179055506000600754905061088a33826116d6565b816009600083815260200190815260200160002060008201518160000160006101000a81548173ffffffffffffffffffffffffffffffffffffffff021916908373ffffffffffffffffffffffffffffffffffffffff16021790555060208201518160010190816108fa9190612fc1565b5060408201518160020190816109109190612fc1565b5060608201518160030190816109269190612fc1565b5060808201518160040160006101000a81548160ff0219169083151502179055509050506007600081548092919061095d906130c2565b91905055505050565b60075481565b6109746116f4565b60008151116109b8576040517f08c379a00000000000000000000000000000000000000000000000000000000081526004016109af90613156565b60405180910390fd5b60005b81518163ffffffff161015610ba357818163ffffffff16815181106109e3576109e2613176565b5b60200260200101516080015115610a2f576040517f08c379a0000000000000000000000000000000000000000000000000000000008152600401610a2690613217565b60405180910390fd5b6001828263ffffffff1681518110610a4a57610a49613176565b5b60200260200101516080019015159081151581525050818163ffffffff1681518110610a7957610a78613176565b5b602002602001015160086000848463ffffffff1681518110610a9e57610a9d613176565b5b60200260200101516000015173ffffffffffffffffffffffffffffffffffffffff1673ffffffffffffffffffffffffffffffffffffffff16815260200190815260200160002060008201518160000160006101000a81548173ffffffffffffffffffffffffffffffffffffffff021916908373ffffffffffffffffffffffffffffffffffffffff1602179055506020820151816001019081610b409190612fc1565b506040820151816002019081610b569190612fc1565b506060820151816003019081610b6c9190612fc1565b5060808201518160040160006101000a81548160ff0219169083151502179055509050508080610b9b90613247565b9150506109bb565b507f1a74c0554ae24d4449c148f76180c4f27975745841cd450935fa560d7bc90fbb60405160405180910390a150565b600073ffffffffffffffffffffffffffffffffffffffff168273ffffffffffffffffffffffffffffffffffffffff1603610c455760006040517f64a0ae92000000000000000000000000000000000000000000000000000000008152600401610c3c91906125ec565b60405180910390fd5b6000610c598383610c546116bc565b61177b565b90508373ffffffffffffffffffffffffffffffffffffffff168173ffffffffffffffffffffffffffffffffffffffff1614610ccf578382826040517f64283d7b000000000000000000000000000000000000000000000000000000008152600401610cc693929190613273565b60405180910390fd5b50505050565b610cf083838360405180602001604052806000815250611125565b505050565b6000610d00826115f7565b9050919050565b60008073ffffffffffffffffffffffffffffffffffffffff168273ffffffffffffffffffffffffffffffffffffffff1603610d7a5760006040517f89c62b64000000000000000000000000000000000000000000000000000000008152600401610d7191906125ec565b60405180910390fd5b600360008373ffffffffffffffffffffffffffffffffffffffff1673ffffffffffffffffffffffffffffffffffffffff168152602001908152602001600020549050919050565b610dc96116f4565b610dd36000611995565b565b6000600660009054906101000a900473ffffffffffffffffffffffffffffffffffffffff16905090565b606060018054610e0e90612d78565b80601f0160208091040260200160405190810160405280929190818152602001828054610e3a90612d78565b8015610e875780601f10610e5c57610100808354040283529160200191610e87565b820191906000526020600020905b815481529060010190602001808311610e6a57829003601f168201915b5050505050905090565b610ea3610e9c6116bc565b8383611a5b565b5050565b610eaf612380565b600860003373ffffffffffffffffffffffffffffffffffffffff1673ffffffffffffffffffffffffffffffffffffffff1681526020019081526020016000206040518060a00160405290816000820160009054906101000a900473ffffffffffffffffffffffffffffffffffffffff1673ffffffffffffffffffffffffffffffffffffffff1673ffffffffffffffffffffffffffffffffffffffff168152602001600182018054610f5f90612d78565b80601f0160208091040260200160405190810160405280929190818152602001828054610f8b90612d78565b8015610fd85780601f10610fad57610100808354040283529160200191610fd8565b820191906000526020600020905b815481529060010190602001808311610fbb57829003601f168201915b50505050508152602001600282018054610ff190612d78565b80601f016020809104026020016040519081016040528092919081815260200182805461101d90612d78565b801561106a5780601f1061103f5761010080835404028352916020019161106a565b820191906000526020600020905b81548152906001019060200180831161104d57829003601f168201915b5050505050815260200160038201805461108390612d78565b80601f01602080910402602001604051908101604052809291908181526020018280546110af90612d78565b80156110fc5780601f106110d1576101008083540402835291602001916110fc565b820191906000526020600020905b8154815290600101906020018083116110df57829003601f168201915b505050505081526020016004820160009054906101000a900460ff161515151581525050905090565b611130848484610bd3565b61113c84848484611bca565b50505050565b6060600061115761115284610cf5565b610d07565b11611197576040517f08c379a000000000000000000000000000000000000000000000000000000000815260040161118e9061331c565b60405180910390fd5b6000600960008481526020019081526020016000206040518060a00160405290816000820160009054906101000a900473ffffffffffffffffffffffffffffffffffffffff1673ffffffffffffffffffffffffffffffffffffffff1673ffffffffffffffffffffffffffffffffffffffff16815260200160018201805461121d90612d78565b80601f016020809104026020016040519081016040528092919081815260200182805461124990612d78565b80156112965780601f1061126b57610100808354040283529160200191611296565b820191906000526020600020905b81548152906001019060200180831161127957829003601f168201915b505050505081526020016002820180546112af90612d78565b80601f01602080910402602001604051908101604052809291908181526020018280546112db90612d78565b80156113285780601f106112fd57610100808354040283529160200191611328565b820191906000526020600020905b81548152906001019060200180831161130b57829003601f168201915b5050505050815260200160038201805461134190612d78565b80601f016020809104026020016040519081016040528092919081815260200182805461136d90612d78565b80156113ba5780601f1061138f576101008083540402835291602001916113ba565b820191906000526020600020905b81548152906001019060200180831161139d57829003601f168201915b505050505081526020016004820160009054906101000a900460ff161515151581525050905060008160600151826020015183602001518460600151856040015160405160200161140f959493929190613624565b60405160208183030381529060405290508060405160200161143191906136e8565b604051602081830303815290604052905061144b81611d81565b60405160200161145b919061374b565b60405160208183030381529060405292505050919050565b6000600560008473ffffffffffffffffffffffffffffffffffffffff1673ffffffffffffffffffffffffffffffffffffffff16815260200190815260200160002060008373ffffffffffffffffffffffffffffffffffffffff1673ffffffffffffffffffffffffffffffffffffffff16815260200190815260200160002060009054906101000a900460ff16905092915050565b61150f6116f4565b600073ffffffffffffffffffffffffffffffffffffffff168173ffffffffffffffffffffffffffffffffffffffff16036115815760006040517f1e4fbdf700000000000000000000000000000000000000000000000000000000815260040161157891906125ec565b60405180910390fd5b61158a81611995565b50565b60007f01ffc9a7000000000000000000000000000000000000000000000000000000007bffffffffffffffffffffffffffffffffffffffffffffffffffffffff1916827bffffffffffffffffffffffffffffffffffffffffffffffffffffffff1916149050919050565b60008061160383611ee4565b9050600073ffffffffffffffffffffffffffffffffffffffff168173ffffffffffffffffffffffffffffffffffffffff160361167657826040517f7e27328900000000000000000000000000000000000000000000000000000000815260040161166d9190612682565b60405180910390fd5b80915050919050565b60006004600083815260200190815260200160002060009054906101000a900473ffffffffffffffffffffffffffffffffffffffff169050919050565b600033905090565b6116d18383836001611f21565b505050565b6116f08282604051806020016040528060008152506120e6565b5050565b6116fc6116bc565b73ffffffffffffffffffffffffffffffffffffffff1661171a610dd5565b73ffffffffffffffffffffffffffffffffffffffff16146117795761173d6116bc565b6040517f118cdaa700000000000000000000000000000000000000000000000000000000815260040161177091906125ec565b60405180910390fd5b565b60008061178784611ee4565b9050600073ffffffffffffffffffffffffffffffffffffffff168373ffffffffffffffffffffffffffffffffffffffff16146117c9576117c8818486612102565b5b600073ffffffffffffffffffffffffffffffffffffffff168173ffffffffffffffffffffffffffffffffffffffff161461185a5761180b600085600080611f21565b6001600360008373ffffffffffffffffffffffffffffffffffffffff1673ffffffffffffffffffffffffffffffffffffffff168152602001908152602001600020600082825403925050819055505b600073ffffffffffffffffffffffffffffffffffffffff168573ffffffffffffffffffffffffffffffffffffffff16146118dd576001600360008773ffffffffffffffffffffffffffffffffffffffff1673ffffffffffffffffffffffffffffffffffffffff168152602001908152602001600020600082825401925050819055505b846002600086815260200190815260200160002060006101000a81548173ffffffffffffffffffffffffffffffffffffffff021916908373ffffffffffffffffffffffffffffffffffffffff160217905550838573ffffffffffffffffffffffffffffffffffffffff168273ffffffffffffffffffffffffffffffffffffffff167fddf252ad1be2c89b69c2b068fc378daa952ba7f163c4a11628f55a4df523b3ef60405160405180910390a4809150509392505050565b6000600660009054906101000a900473ffffffffffffffffffffffffffffffffffffffff16905081600660006101000a81548173ffffffffffffffffffffffffffffffffffffffff021916908373ffffffffffffffffffffffffffffffffffffffff1602179055508173ffffffffffffffffffffffffffffffffffffffff168173ffffffffffffffffffffffffffffffffffffffff167f8be0079c531659141344cd1fd0a4f28419497f9722a3daafe3b4186f6b6457e060405160405180910390a35050565b600073ffffffffffffffffffffffffffffffffffffffff168273ffffffffffffffffffffffffffffffffffffffff1603611acc57816040517f5b08ba18000000000000000000000000000000000000000000000000000000008152600401611ac391906125ec565b60405180910390fd5b80600560008573ffffffffffffffffffffffffffffffffffffffff1673ffffffffffffffffffffffffffffffffffffffff16815260200190815260200160002060008473ffffffffffffffffffffffffffffffffffffffff1673ffffffffffffffffffffffffffffffffffffffff16815260200190815260200160002060006101000a81548160ff0219169083151502179055508173ffffffffffffffffffffffffffffffffffffffff168373ffffffffffffffffffffffffffffffffffffffff167f17307eab39ab6107e8899845ad3d59bd9653f200f220920489ca2b5937696c3183604051611bbd919061247b565b60405180910390a3505050565b60008373ffffffffffffffffffffffffffffffffffffffff163b1115611d7b578273ffffffffffffffffffffffffffffffffffffffff1663150b7a02611c0e6116bc565b8685856040518563ffffffff1660e01b8152600401611c3094939291906137c2565b6020604051808303816000875af1925050508015611c6c57506040513d601f19601f82011682018060405250810190611c699190613823565b60015b611cf0573d8060008114611c9c576040519150601f19603f3d011682016040523d82523d6000602084013e611ca1565b606091505b506000815103611ce857836040517f64a0ae92000000000000000000000000000000000000000000000000000000008152600401611cdf91906125ec565b60405180910390fd5b805181602001fd5b63150b7a0260e01b7bffffffffffffffffffffffffffffffffffffffffffffffffffffffff1916817bffffffffffffffffffffffffffffffffffffffffffffffffffffffff191614611d7957836040517f64a0ae92000000000000000000000000000000000000000000000000000000008152600401611d7091906125ec565b60405180910390fd5b505b50505050565b60606000825103611da357604051806020016040528060008152509050611edf565b60006040518060600160405280604081526020016139506040913990506000600360028551611dd29190613850565b611ddc91906138b3565b6004611de891906138e4565b67ffffffffffffffff811115611e0157611e006126a2565b5b6040519080825280601f01601f191660200182016040528015611e335781602001600182028036833780820191505090505b509050600182016020820185865187015b80821015611e9f576003820191508151603f8160121c168501518453600184019350603f81600c1c168501518453600184019350603f8160061c168501518453600184019350603f8116850151845360018401935050611e44565b5050600386510660018114611ebb5760028114611ece57611ed6565b603d6001830353603d6002830353611ed6565b603d60018303535b50505080925050505b919050565b60006002600083815260200190815260200160002060009054906101000a900473ffffffffffffffffffffffffffffffffffffffff169050919050565b8080611f5a5750600073ffffffffffffffffffffffffffffffffffffffff168273ffffffffffffffffffffffffffffffffffffffff1614155b1561208e576000611f6a846115f7565b9050600073ffffffffffffffffffffffffffffffffffffffff168373ffffffffffffffffffffffffffffffffffffffff1614158015611fd557508273ffffffffffffffffffffffffffffffffffffffff168173ffffffffffffffffffffffffffffffffffffffff1614155b8015611fe85750611fe68184611473565b155b1561202a57826040517fa9fbf51f00000000000000000000000000000000000000000000000000000000815260040161202191906125ec565b60405180910390fd5b811561208c57838573ffffffffffffffffffffffffffffffffffffffff168273ffffffffffffffffffffffffffffffffffffffff167f8c5be1e5ebec7d5bd14f71427d1e84f3dd0314c0f7b2291e5b200ac8c7c3b92560405160405180910390a45b505b836004600085815260200190815260200160002060006101000a81548173ffffffffffffffffffffffffffffffffffffffff021916908373ffffffffffffffffffffffffffffffffffffffff16021790555050505050565b6120f083836121c6565b6120fd6000848484611bca565b505050565b61210d8383836122bf565b6121c157600073ffffffffffffffffffffffffffffffffffffffff168373ffffffffffffffffffffffffffffffffffffffff160361218257806040517f7e2732890000000000000000000000000000000000000000000000000000000081526004016121799190612682565b60405180910390fd5b81816040517f177e802f0000000000000000000000000000000000000000000000000000000081526004016121b8929190613926565b60405180910390fd5b505050565b600073ffffffffffffffffffffffffffffffffffffffff168273ffffffffffffffffffffffffffffffffffffffff16036122385760006040517f64a0ae9200000000000000000000000000000000000000000000000000000000815260040161222f91906125ec565b60405180910390fd5b60006122468383600061177b565b9050600073ffffffffffffffffffffffffffffffffffffffff168173ffffffffffffffffffffffffffffffffffffffff16146122ba5760006040517f73c6ac6e0000000000000000000000000000000000000000000000000000000081526004016122b191906125ec565b60405180910390fd5b505050565b60008073ffffffffffffffffffffffffffffffffffffffff168373ffffffffffffffffffffffffffffffffffffffff161415801561237757508273ffffffffffffffffffffffffffffffffffffffff168473ffffffffffffffffffffffffffffffffffffffff16148061233857506123378484611473565b5b8061237657508273ffffffffffffffffffffffffffffffffffffffff1661235e8361167f565b73ffffffffffffffffffffffffffffffffffffffff16145b5b90509392505050565b6040518060a00160405280600073ffffffffffffffffffffffffffffffffffffffff1681526020016060815260200160608152602001606081526020016000151581525090565b6000604051905090565b600080fd5b600080fd5b60007fffffffff0000000000000000000000000000000000000000000000000000000082169050919050565b612410816123db565b811461241b57600080fd5b50565b60008135905061242d81612407565b92915050565b600060208284031215612449576124486123d1565b5b60006124578482850161241e565b91505092915050565b60008115159050919050565b61247581612460565b82525050565b6000602082019050612490600083018461246c565b92915050565b600081519050919050565b600082825260208201905092915050565b60005b838110156124d05780820151818401526020810190506124b5565b60008484015250505050565b6000601f19601f8301169050919050565b60006124f882612496565b61250281856124a1565b93506125128185602086016124b2565b61251b816124dc565b840191505092915050565b6000602082019050818103600083015261254081846124ed565b905092915050565b6000819050919050565b61255b81612548565b811461256657600080fd5b50565b60008135905061257881612552565b92915050565b600060208284031215612594576125936123d1565b5b60006125a284828501612569565b91505092915050565b600073ffffffffffffffffffffffffffffffffffffffff82169050919050565b60006125d6826125ab565b9050919050565b6125e6816125cb565b82525050565b600060208201905061260160008301846125dd565b92915050565b612610816125cb565b811461261b57600080fd5b50565b60008135905061262d81612607565b92915050565b6000806040838503121561264a576126496123d1565b5b60006126588582860161261e565b925050602061266985828601612569565b9150509250929050565b61267c81612548565b82525050565b60006020820190506126976000830184612673565b92915050565b600080fd5b7f4e487b7100000000000000000000000000000000000000000000000000000000600052604160045260246000fd5b6126da826124dc565b810181811067ffffffffffffffff821117156126f9576126f86126a2565b5b80604052505050565b600061270c6123c7565b905061271882826126d1565b919050565b600067ffffffffffffffff821115612738576127376126a2565b5b602082029050602081019050919050565b600080fd5b600080fd5b600080fd5b600080fd5b600067ffffffffffffffff821115612778576127776126a2565b5b612781826124dc565b9050602081019050919050565b82818337600083830152505050565b60006127b06127ab8461275d565b612702565b9050828152602081018484840111156127cc576127cb612758565b5b6127d784828561278e565b509392505050565b600082601f8301126127f4576127f361269d565b5b813561280484826020860161279d565b91505092915050565b61281681612460565b811461282157600080fd5b50565b6000813590506128338161280d565b92915050565b600060a0828403121561284f5761284e61274e565b5b61285960a0612702565b905060006128698482850161261e565b600083015250602082013567ffffffffffffffff81111561288d5761288c612753565b5b612899848285016127df565b602083015250604082013567ffffffffffffffff8111156128bd576128bc612753565b5b6128c9848285016127df565b604083015250606082013567ffffffffffffffff8111156128ed576128ec612753565b5b6128f9848285016127df565b606083015250608061290d84828501612824565b60808301525092915050565b600061292c6129278461271d565b612702565b9050808382526020820190506020840283018581111561294f5761294e612749565b5b835b8181101561299657803567ffffffffffffffff8111156129745761297361269d565b5b8086016129818982612839565b85526020850194505050602081019050612951565b5050509392505050565b600082601f8301126129b5576129b461269d565b5b81356129c5848260208601612919565b91505092915050565b6000602082840312156129e4576129e36123d1565b5b600082013567ffffffffffffffff811115612a0257612a016123d6565b5b612a0e848285016129a0565b91505092915050565b600080600060608486031215612a3057612a2f6123d1565b5b6000612a3e8682870161261e565b9350506020612a4f8682870161261e565b9250506040612a6086828701612569565b9150509250925092565b600060208284031215612a8057612a7f6123d1565b5b6000612a8e8482850161261e565b91505092915050565b60008060408385031215612aae57612aad6123d1565b5b6000612abc8582860161261e565b9250506020612acd85828601612824565b9150509250929050565b612ae0816125cb565b82525050565b600082825260208201905092915050565b6000612b0282612496565b612b0c8185612ae6565b9350612b1c8185602086016124b2565b612b25816124dc565b840191505092915050565b612b3981612460565b82525050565b600060a083016000830151612b576000860182612ad7565b5060208301518482036020860152612b6f8282612af7565b91505060408301518482036040860152612b898282612af7565b91505060608301518482036060860152612ba38282612af7565b9150506080830151612bb86080860182612b30565b508091505092915050565b60006020820190508181036000830152612bdd8184612b3f565b905092915050565b600067ffffffffffffffff821115612c0057612bff6126a2565b5b612c09826124dc565b9050602081019050919050565b6000612c29612c2484612be5565b612702565b905082815260208101848484011115612c4557612c44612758565b5b612c5084828561278e565b509392505050565b600082601f830112612c6d57612c6c61269d565b5b8135612c7d848260208601612c16565b91505092915050565b60008060008060808587031215612ca057612c9f6123d1565b5b6000612cae8782880161261e565b9450506020612cbf8782880161261e565b9350506040612cd087828801612569565b925050606085013567ffffffffffffffff811115612cf157612cf06123d6565b5b612cfd87828801612c58565b91505092959194509250565b60008060408385031215612d2057612d1f6123d1565b5b6000612d2e8582860161261e565b9250506020612d3f8582860161261e565b9150509250929050565b7f4e487b7100000000000000000000000000000000000000000000000000000000600052602260045260246000fd5b60006002820490506001821680612d9057607f821691505b602082108103612da357612da2612d49565b5b50919050565b7f4e6f6e6520417661696c61626c6520666f722074686973206164647265737300600082015250565b6000612ddf601f836124a1565b9150612dea82612da9565b602082019050919050565b60006020820190508181036000830152612e0e81612dd2565b9050919050565b60008190508160005260206000209050919050565b60006020601f8301049050919050565b600082821b905092915050565b600060088302612e777fffffffffffffffffffffffffffffffffffffffffffffffffffffffffffffffff82612e3a565b612e818683612e3a565b95508019841693508086168417925050509392505050565b6000819050919050565b6000612ebe612eb9612eb484612548565b612e99565b612548565b9050919050565b6000819050919050565b612ed883612ea3565b612eec612ee482612ec5565b848454612e47565b825550505050565b600090565b612f01612ef4565b612f0c818484612ecf565b505050565b5b81811015612f3057612f25600082612ef9565b600181019050612f12565b5050565b601f821115612f7557612f4681612e15565b612f4f84612e2a565b81016020851015612f5e578190505b612f72612f6a85612e2a565b830182612f11565b50505b505050565b600082821c905092915050565b6000612f9860001984600802612f7a565b1980831691505092915050565b6000612fb18383612f87565b9150826002028217905092915050565b612fca82612496565b67ffffffffffffffff811115612fe357612fe26126a2565b5b612fed8254612d78565b612ff8828285612f34565b600060209050601f83116001811461302b5760008415613019578287015190505b6130238582612fa5565b86555061308b565b601f19841661303986612e15565b60005b828110156130615784890151825560018201915060208501945060208101905061303c565b8683101561307e578489015161307a601f891682612f87565b8355505b6001600288020188555050505b505050505050565b7f4e487b7100000000000000000000000000000000000000000000000000000000600052601160045260246000fd5b60006130cd82612548565b91507fffffffffffffffffffffffffffffffffffffffffffffffffffffffffffffffff82036130ff576130fe613093565b5b600182019050919050565b7f417272617920697320656d707479000000000000000000000000000000000000600082015250565b6000613140600e836124a1565b915061314b8261310a565b602082019050919050565b6000602082019050818103600083015261316f81613133565b9050919050565b7f4e487b7100000000000000000000000000000000000000000000000000000000600052603260045260246000fd5b7f416c72656164792061646465642c20676f206d696e7420796f7572206365727460008201527f6966696361746500000000000000000000000000000000000000000000000000602082015250565b60006132016027836124a1565b915061320c826131a5565b604082019050919050565b60006020820190508181036000830152613230816131f4565b9050919050565b600063ffffffff82169050919050565b600061325282613237565b915063ffffffff820361326857613267613093565b5b600182019050919050565b600060608201905061328860008301866125dd565b6132956020830185612673565b6132a260408301846125dd565b949350505050565b7f4552433732314d657461646174613a2055524920717565727920666f72206e6f60008201527f6e6578697374656e7420746f6b656e0000000000000000000000000000000000602082015250565b6000613306602f836124a1565b9150613311826132aa565b604082019050919050565b60006020820190508181036000830152613335816132f9565b9050919050565b600081905092915050565b7f7b00000000000000000000000000000000000000000000000000000000000000600082015250565b600061337d60018361333c565b915061338882613347565b600182019050919050565b7f22636f6c6c656374696f6e5f6e616d65223a22636f686f727400000000000000600082015250565b60006133c960198361333c565b91506133d482613393565b601982019050919050565b60006133ea82612496565b6133f4818561333c565b93506134048185602086016124b2565b80840191505092915050565b7f222c000000000000000000000000000000000000000000000000000000000000600082015250565b600061344660028361333c565b915061345182613410565b600282019050919050565b7f226e616d65223a22000000000000000000000000000000000000000000000000600082015250565b600061349260088361333c565b915061349d8261345c565b600882019050919050565b7f226465736372697074696f6e223a220000000000000000000000000000000000600082015250565b60006134de600f8361333c565b91506134e9826134a8565b600f82019050919050565b7f204772616475617465642066726f6d20636f686f727400000000000000000000600082015250565b600061352a60168361333c565b9150613535826134f4565b601682019050919050565b7f22696d616765223a220000000000000000000000000000000000000000000000600082015250565b600061357660098361333c565b915061358182613540565b600982019050919050565b7f2200000000000000000000000000000000000000000000000000000000000000600082015250565b60006135c260018361333c565b91506135cd8261358c565b600182019050919050565b7f7d00000000000000000000000000000000000000000000000000000000000000600082015250565b600061360e60018361333c565b9150613619826135d8565b600182019050919050565b600061362f82613370565b915061363a826133bc565b915061364682886133df565b915061365182613439565b915061365c82613485565b915061366882876133df565b915061367382613439565b915061367e826134d1565b915061368a82866133df565b91506136958261351d565b91506136a182856133df565b91506136ac82613439565b91506136b782613569565b91506136c382846133df565b91506136ce826135b5565b91506136d982613601565b91508190509695505050505050565b60006136f482846133df565b915081905092915050565b7f646174613a6170706c69636174696f6e2f6a736f6e3b6261736536342c000000600082015250565b6000613735601d8361333c565b9150613740826136ff565b601d82019050919050565b600061375682613728565b915061376282846133df565b915081905092915050565b600081519050919050565b600082825260208201905092915050565b60006137948261376d565b61379e8185613778565b93506137ae8185602086016124b2565b6137b7816124dc565b840191505092915050565b60006080820190506137d760008301876125dd565b6137e460208301866125dd565b6137f16040830185612673565b81810360608301526138038184613789565b905095945050505050565b60008151905061381d81612407565b92915050565b600060208284031215613839576138386123d1565b5b60006138478482850161380e565b91505092915050565b600061385b82612548565b915061386683612548565b925082820190508082111561387e5761387d613093565b5b92915050565b7f4e487b7100000000000000000000000000000000000000000000000000000000600052601260045260246000fd5b60006138be82612548565b91506138c983612548565b9250826138d9576138d8613884565b5b828204905092915050565b60006138ef82612548565b91506138fa83612548565b925082820261390881612548565b9150828204841483151761391f5761391e613093565b5b5092915050565b600060408201905061393b60008301856125dd565b6139486020830184612673565b939250505056fe4142434445464748494a4b4c4d4e4f505152535455565758595a6162636465666768696a6b6c6d6e6f707172737475767778797a303132333435363738392b2fa2646970667358221220f72942fbdf049acac760c342af0f9353d1f2049d031e8b82c4efa016a285c42d64736f6c63430008140033",
  "devdoc": {
    "errors": {
      "ERC721IncorrectOwner(address,uint256,address)": [
        {
          "details": "Indicates an error related to the ownership over a particular token. Used in transfers.",
          "params": {
            "owner": "Address of the current owner of a token.",
            "sender": "Address whose tokens are being transferred.",
            "tokenId": "Identifier number of a token."
          }
        }
      ],
      "ERC721InsufficientApproval(address,uint256)": [
        {
          "details": "Indicates a failure with the `operator`s approval. Used in transfers.",
          "params": {
            "operator": "Address that may be allowed to operate on tokens without being their owner.",
            "tokenId": "Identifier number of a token."
          }
        }
      ],
      "ERC721InvalidApprover(address)": [
        {
          "details": "Indicates a failure with the `approver` of a token to be approved. Used in approvals.",
          "params": {
            "approver": "Address initiating an approval operation."
          }
        }
      ],
      "ERC721InvalidOperator(address)": [
        {
          "details": "Indicates a failure with the `operator` to be approved. Used in approvals.",
          "params": {
            "operator": "Address that may be allowed to operate on tokens without being their owner."
          }
        }
      ],
      "ERC721InvalidOwner(address)": [
        {
          "details": "Indicates that an address can't be an owner. For example, `address(0)` is a forbidden owner in EIP-20. Used in balance queries.",
          "params": {
            "owner": "Address of the current owner of a token."
          }
        }
      ],
      "ERC721InvalidReceiver(address)": [
        {
          "details": "Indicates a failure with the token `receiver`. Used in transfers.",
          "params": {
            "receiver": "Address to which tokens are being transferred."
          }
        }
      ],
      "ERC721InvalidSender(address)": [
        {
          "details": "Indicates a failure with the token `sender`. Used in transfers.",
          "params": {
            "sender": "Address whose tokens are being transferred."
          }
        }
      ],
      "ERC721NonexistentToken(uint256)": [
        {
          "details": "Indicates a `tokenId` whose `owner` is the zero address.",
          "params": {
            "tokenId": "Identifier number of a token."
          }
        }
      ],
      "OwnableInvalidOwner(address)": [
        {
          "details": "The owner is not a valid owner account. (eg. `address(0)`)"
        }
      ],
      "OwnableUnauthorizedAccount(address)": [
        {
          "details": "The caller account is not authorized to perform an operation."
        }
      ]
    },
    "events": {
      "Approval(address,address,uint256)": {
        "details": "Emitted when `owner` enables `approved` to manage the `tokenId` token."
      },
      "ApprovalForAll(address,address,bool)": {
        "details": "Emitted when `owner` enables or disables (`approved`) `operator` to manage all of its assets."
      },
      "Transfer(address,address,uint256)": {
        "details": "Emitted when `tokenId` token is transferred from `from` to `to`."
      }
    },
    "kind": "dev",
    "methods": {
      "approve(address,uint256)": {
        "details": "See {IERC721-approve}."
      },
      "balanceOf(address)": {
        "details": "See {IERC721-balanceOf}."
      },
      "getApproved(uint256)": {
        "details": "See {IERC721-getApproved}."
      },
      "isApprovedForAll(address,address)": {
        "details": "See {IERC721-isApprovedForAll}."
      },
      "name()": {
        "details": "See {IERC721Metadata-name}."
      },
      "owner()": {
        "details": "Returns the address of the current owner."
      },
      "ownerOf(uint256)": {
        "details": "See {IERC721-ownerOf}."
      },
      "renounceOwnership()": {
        "details": "Leaves the contract without owner. It will not be possible to call `onlyOwner` functions. Can only be called by the current owner. NOTE: Renouncing ownership will leave the contract without an owner, thereby disabling any functionality that is only available to the owner."
      },
      "safeTransferFrom(address,address,uint256)": {
        "details": "See {IERC721-safeTransferFrom}."
      },
      "safeTransferFrom(address,address,uint256,bytes)": {
        "details": "See {IERC721-safeTransferFrom}."
      },
      "setApprovalForAll(address,bool)": {
        "details": "See {IERC721-setApprovalForAll}."
      },
      "supportsInterface(bytes4)": {
        "details": "See {IERC165-supportsInterface}."
      },
      "symbol()": {
        "details": "See {IERC721Metadata-symbol}."
      },
      "tokenURI(uint256)": {
        "details": "See {IERC721Metadata-tokenURI}."
      },
      "transferFrom(address,address,uint256)": {
        "details": "See {IERC721-transferFrom}."
      },
      "transferOwnership(address)": {
        "details": "Transfers ownership of the contract to a new account (`newOwner`). Can only be called by the current owner."
      }
    },
    "version": 1
  },
  "userdoc": {
    "kind": "user",
    "methods": {},
    "version": 1
  },
  "storageLayout": {
    "storage": [
      {
        "astId": 317,
        "contract": "contracts/CeloNFTS.sol:CeloNFTS",
        "label": "_name",
        "offset": 0,
        "slot": "0",
        "type": "t_string_storage"
      },
      {
        "astId": 319,
        "contract": "contracts/CeloNFTS.sol:CeloNFTS",
        "label": "_symbol",
        "offset": 0,
        "slot": "1",
        "type": "t_string_storage"
      },
      {
        "astId": 323,
        "contract": "contracts/CeloNFTS.sol:CeloNFTS",
        "label": "_owners",
        "offset": 0,
        "slot": "2",
        "type": "t_mapping(t_uint256,t_address)"
      },
      {
        "astId": 327,
        "contract": "contracts/CeloNFTS.sol:CeloNFTS",
        "label": "_balances",
        "offset": 0,
        "slot": "3",
        "type": "t_mapping(t_address,t_uint256)"
      },
      {
        "astId": 331,
        "contract": "contracts/CeloNFTS.sol:CeloNFTS",
        "label": "_tokenApprovals",
        "offset": 0,
        "slot": "4",
        "type": "t_mapping(t_uint256,t_address)"
      },
      {
        "astId": 337,
        "contract": "contracts/CeloNFTS.sol:CeloNFTS",
        "label": "_operatorApprovals",
        "offset": 0,
        "slot": "5",
        "type": "t_mapping(t_address,t_mapping(t_address,t_bool))"
      },
      {
        "astId": 8,
        "contract": "contracts/CeloNFTS.sol:CeloNFTS",
        "label": "_owner",
        "offset": 0,
        "slot": "6",
        "type": "t_address"
      },
      {
        "astId": 3007,
        "contract": "contracts/CeloNFTS.sol:CeloNFTS",
        "label": "totalSupply",
        "offset": 0,
        "slot": "7",
        "type": "t_uint256"
      },
      {
        "astId": 3012,
        "contract": "contracts/CeloNFTS.sol:CeloNFTS",
        "label": "nfts",
        "offset": 0,
        "slot": "8",
        "type": "t_mapping(t_address,t_struct(nftDetails)3005_storage)"
      },
      {
        "astId": 3017,
        "contract": "contracts/CeloNFTS.sol:CeloNFTS",
        "label": "mintedNfts",
        "offset": 0,
        "slot": "9",
        "type": "t_mapping(t_uint256,t_struct(nftDetails)3005_storage)"
      }
    ],
    "types": {
      "t_address": {
        "encoding": "inplace",
        "label": "address",
        "numberOfBytes": "20"
      },
      "t_bool": {
        "encoding": "inplace",
        "label": "bool",
        "numberOfBytes": "1"
      },
      "t_mapping(t_address,t_bool)": {
        "encoding": "mapping",
        "key": "t_address",
        "label": "mapping(address => bool)",
        "numberOfBytes": "32",
        "value": "t_bool"
      },
      "t_mapping(t_address,t_mapping(t_address,t_bool))": {
        "encoding": "mapping",
        "key": "t_address",
        "label": "mapping(address => mapping(address => bool))",
        "numberOfBytes": "32",
        "value": "t_mapping(t_address,t_bool)"
      },
      "t_mapping(t_address,t_struct(nftDetails)3005_storage)": {
        "encoding": "mapping",
        "key": "t_address",
        "label": "mapping(address => struct CeloNFTS.nftDetails)",
        "numberOfBytes": "32",
        "value": "t_struct(nftDetails)3005_storage"
      },
      "t_mapping(t_address,t_uint256)": {
        "encoding": "mapping",
        "key": "t_address",
        "label": "mapping(address => uint256)",
        "numberOfBytes": "32",
        "value": "t_uint256"
      },
      "t_mapping(t_uint256,t_address)": {
        "encoding": "mapping",
        "key": "t_uint256",
        "label": "mapping(uint256 => address)",
        "numberOfBytes": "32",
        "value": "t_address"
      },
      "t_mapping(t_uint256,t_struct(nftDetails)3005_storage)": {
        "encoding": "mapping",
        "key": "t_uint256",
        "label": "mapping(uint256 => struct CeloNFTS.nftDetails)",
        "numberOfBytes": "32",
        "value": "t_struct(nftDetails)3005_storage"
      },
      "t_string_storage": {
        "encoding": "bytes",
        "label": "string",
        "numberOfBytes": "32"
      },
      "t_struct(nftDetails)3005_storage": {
        "encoding": "inplace",
        "label": "struct CeloNFTS.nftDetails",
        "members": [
          {
            "astId": 2996,
            "contract": "contracts/CeloNFTS.sol:CeloNFTS",
            "label": "student",
            "offset": 0,
            "slot": "0",
            "type": "t_address"
          },
          {
            "astId": 2998,
            "contract": "contracts/CeloNFTS.sol:CeloNFTS",
            "label": "name",
            "offset": 0,
            "slot": "1",
            "type": "t_string_storage"
          },
          {
            "astId": 3000,
            "contract": "contracts/CeloNFTS.sol:CeloNFTS",
            "label": "image",
            "offset": 0,
            "slot": "2",
            "type": "t_string_storage"
          },
          {
            "astId": 3002,
            "contract": "contracts/CeloNFTS.sol:CeloNFTS",
            "label": "cohort",
            "offset": 0,
            "slot": "3",
            "type": "t_string_storage"
          },
          {
            "astId": 3004,
            "contract": "contracts/CeloNFTS.sol:CeloNFTS",
            "label": "added",
            "offset": 0,
            "slot": "4",
            "type": "t_bool"
          }
        ],
        "numberOfBytes": "160"
      },
      "t_uint256": {
        "encoding": "inplace",
        "label": "uint256",
        "numberOfBytes": "32"
      }
    }
  }
}